S00E000074696D696E672E737265638E
S11300006BC000007AC0000078C0000076C0000019
S113001074C0000072C0000070C000006EC0000018
S11300206CC000006AC0000068C0000066C0000028
S113003064C0000062C0000060C000005EC0000038
S11300405DC000005AC0000058C0000056C0000047
S113005054C0000052C0000050C000004EC0000058
S11300604CC000004AC0000048C0000046C0000068
S113007044C0000042C0000040C000003EC0000078
S11300803CC000003AC0000038C00000084AD73B1A
S11300903BCE016E84BCBFFDC12F3D6C74319ABD53
S11300A056833DDA3D00C77F11BED9E4BB4C3E9177
S11300B06BAAAABE000000803F05A84CCDB2D44E66
S11300C0B93836A9020C50B9918688083CA6AAAA68
S11300D02ABE000000803F0011241FBECFEFD0E1F4
S11300E0DEBFCDBF21E0A0E0B1E001C01D92A23986
S11300F0B207E1F7DAD30C948E0C82CF1F920F92E1
S11301000FB60F9211240BB60F922F933F934F9378
S11301105F936F937F938F939F93AF93BF93EF936B
S1130120FF93609104017091050180910601909103
S113013007012FE632E143E05BE30E944C09609340
S1130140040170930501809306019093070183E8ED
S113015082BFFF91EF91BF91AF919F918F917F915A
S11301606F915F914F913F912F910F900BBE0F9024
S11301700FBE0F901F9018959B01AC015F7760E054
S113018070E088EC92E40E944B0920E030E048ECF7
S113019052E40E94DF0960938C0170938D01809377
S11301A08E0190938F01089594EA90937400E4E78C
S11301B0F0E090819923ECF7E1E7F0E09081987FFB
S11301C09830E1F790ED9093730094E89093740065
S11301D0E4E7F0E090819923ECF7E1E7F0E0908127
S11301E0987F9831E1F78093730084E880937400DA
S11301F0E4E7F0E080818823ECF7E1E7F0E0808138
S1130200887F8832E1F76093730084E880937400F8
S1130210E4E7F0E080818823ECF7E1E7F0E0808117
S1130220887F8832E1F784E980937400089594EA22
S113023090937400E4E7F0E090819923ECF7E1E710
S1130240F0E09081987F9830E1F790ED90937300FF
S113025094E890937400E4E7F0E090819923ECF73C
S1130260E1E7F0E09081987F9831E1F780937300A3
S113027084E880937400E4E7F0E080818823ECF75D
S1130280E1E7F0E08081887F8832E1F784EA8093B7
S11302907400E4E7F0E080818823ECF7E1E7F0E024
S11302A08081887F8031E1F781ED8093730084E859
S11302B080937400E4E7F0E080818823ECF7E1E7C1
S11302C0F0E08081887F8034E1F784E880937400D3
S11302D0E4E7F0E080818823ECF7E1E7F0E0808157
S11302E0887F8835E1F78091730094E990937400D6
S11302F008958BE39CDF809349018CE398DF80931E
S11303007F018DE394DF809391018EE390DF8093EE
S113031019018FE38CDF8093220180E488DF8093CE
S1130320340183E484DF8093660184E480DF809376
S1130330900185E47CDF8093140186E478DF809368
S1130340430187E474DF8093330188E470DF809392
S1130350440108954F925F926F927F928F929F9281
S1130360AF92BF92CF92DF92EF92FF92CF93DF933F
S113037000D000D0CDB7DEB784E190E09A838983C2
S1130380B8DF2091490180917F0190E0922B9093F6
S11303903601809335016091350170913601C0902A
S11303A02701D0902801E0902901F0902A0171954D
S11303B061957109072E000C880B990B0E947A0A2B
S11303C0A701960169D76093270170932801809350
S11303D0290190932A01209191018091190190E0C3
S11303E0922B909336018093350160913501709181
S11303F03601C0900801D0900901E0900A01F09004
S11304000B01719561957109072E000C880B990BEE
S11304100E947A0AA70196013FD76093080170935E
S1130420090180930A0190930B012091220180918C
S1130430340190E0922B90933601809335016091C2
S1130440350170913601C0903B01D0903C01E090A1
S11304503D01F0903E01072E000C880B990B0E9481
S11304607A0AA701960118D760933B0170933C0167
S113047080933D0190933E0120916601809190010B
S113048090E0922B90933601809335016091350171
S113049070913601C0901001D0901101E0901201CA
S11304A0F0901301072E000C880B990B0E947A0A16
S11304B0A7019601F1D66093100170931101809306
S11304C0120190931301209114018091430190E053
S11304D0922B909336018093350160913501709190
S11304E03601C0908801D0908901E0908A01F09093
S11304F08B01072E000C880B990BFCD7A7019601E2
S1130500CBD6609388017093890180938A0190937C
S11305108B01209133018091440190E0922B9093C0
S11305203601809335016091350170913601C09098
S11305303701D0903801E0903901F0903A01072E4C
S1130540000C880B990BD6D7A7019601A5D660930A
S11305503701709338018093390190933A019FEFEA
S113056021EE84E0915020408040E1F700C000007B
S113057089819A8101979A838983892B09F000CF15
S113058060912701709128018091290190912A019D
S113059020E030E040EA51E412D7609327017093E1
S11305A028018093290190932A0160910801709198
S11305B0090180910A0190910B0120E030E040EAAA
S11305C051E4FDD6609308017093090180930A01F8
S11305D090930B0160913B0170913C0180913D012E
S11305E090913E0120E030E040EA51E4E8D6609387
S11305F03B0170933C0180933D0190933E016091D7
S1130600100170911101809112019091130120E069
S113061030E040EA51E4D3D66093100170931101A5
S11306208093120190931301609188017091890164
S113063080918A0190918B0120E030E040EA51E4FE
S1130640BED6609388017093890180938A01909348
S11306508B0160913701709138018091390190913B
S11306603A0120E030E040EA51E4A9D66093370132
S1130670709338018093390190933A018091270156
S113068090912801A0912901B0912A0180932F0112
S113069090933001A0933101B0933201809108010D
S11306A090910901A0910A01B0910B0180931A0164
S11306B090931B01A0931C01B0931D0180913B01F9
S11306C090913C01A0913D01B0913E018093800145
S11306D090938101A0938201B093830180911001D2
S11306E090911101A0911201B091130180932B01FB
S11306F090932C01A0932D01B0932E018091880139
S113070090918901A0918A01B0918B0180930C0191
S113071090930D01A0930E01B0930F0180913701C6
S113072090913801A0913901B0913A0180933F0131
S113073090934001A0934101B0934201C0902701DE
S1130740D0902801E0902901F0902A0180900801BE
S113075090900901A0900A01B0900B0140903B01D8
S113076050903C0160903D0170903E01A5019401C0
S1130770C501B401D8D769837A838B839C83A7018D
S11307809601C701B601CFD79B01AC0169817A817B
S11307908B819C8181D569837A838B839C83A5011A
S11307A09401C501B401BFD74B015C01A7019601B7
S11307B0C701B601B8D79B01AC01C501B4016CD522
S11307C06B017C01A3019201C301B201ACD79B016F
S11307D0AC01C701B60160D50E94000C60931501FD
S11307E07093160180931701909318010F900F9046
S11307F00F900F90DF91CF91FF90EF90DF90CF900B
S1130800BF90AF909F908F907F906F905F904F902C
S113081008955D9BFECF8CB90895EF92FF920F93DC
S11308201F93CF93DF93EC01992334F4D195C195B1
S1130830D1098DE2EEDF02C080E2EBDFCE0160E1A0
S113084077E20E94670C7C0180E3860FE2DF08EE0A
S113085013E0C701B8010E94670C80E3860FD9DF5B
S1130860CE01B8010E94670C04E610E0B8010E94B2
S1130870670C80E3860FCDDFCE01B8010E94670CC0
S11308800AE010E0B8010E94670C80E3860FC1DF24
S1130890CE01B8010E94670C805DBBDFDF91CF9170
S11308A01F910F91FF90EF900895CF93DF9300D0A5
S11308B000D0CDB7DEB78FEF8ABB88E182B91BB811
S11308C088E08AB986E0809395001092900097E6BC
S11308D099B994E0909374009CE09093700083BF66
S11308E083E882BF81E087BF82EA80938B008BE13B
S11308F080938A0087E893E190938100809380003D
S113090086E990E0909387008093860084EF91E0DD
S1130910909385008093840010928900109288003F
S113092060E08BE641DC8FE99FE00197F1F700C0BE
S1130930000065E08AE138DC0DDD789480912B01BC
S113094090912C01A0912D01B0912E018093620110
S113095090936301A0936401B09365010F2EF6E9AF
S11309602F2E312CF02D04EF11E0C3DC80916F01A8
S113097090917001A0917101B09172018093230153
S113098090932401A0932501B093260180916B01DB
S113099090916C01A0916D01B0916E0180937701EB
S11309A090937801A0937901B0937A0180916701C3
S11309B090916801A0916901B0916A0180934E0100
S11309C090934F01A0935001B0935101209149019C
S11309D080917F0190E0922B9093360180933501B2
S11309E06091350170913601719561957109072EF9
S11309F0000C880B990B7ED5609327017093280116
S1130A008093290190932A012091910180911901E9
S1130A1090E0922B909336018093350160913501DB
S1130A2070913601719561957109072E000C880B40
S1130A30990B60D5609308017093090180930A01B2
S1130A4090930B01209122018091340190E0922B2C
S1130A509093360180933501609135017091360190
S1130A60072E000C880B990B45D560933B017093BE
S1130A703C0180933D0190933E0120916601809159
S1130A80900190E0922B9093360180933501609110
S1130A90350170913601072E000C880B990B2AD56D
S1130AA060931001709311018093120190931301CC
S1130AB0209114018091430190E0922B9093360190
S1130AC0809335016091350170913601072E000C39
S1130AD0880B990B0FD560938801709389018093DB
S1130AE08A0190938B01209133018091440190E01D
S1130AF0922B90933601809335016091350170916A
S1130B003601072E000C880B990BF4D4609337013F
S1130B10709338018093390190933A0160911001E8
S1130B2070911101809112019091130120912B0178
S1130B3030912C0140912D0150912E01ACD320E035
S1130B4030E043E053E43BD460931001709311010F
S1130B50809312019093130160918801709189012F
S1130B6080918A0190918B0120910C0130910D01AB
S1130B7040910E0150910F018ED320E030E043E00C
S1130B8053E41DD4609388017093890180938A0192
S1130B9090938B01609137017091380180913901F4
S1130BA090913A0120913F013091400140914101DF
S1130BB05091420170D320E030E043E053E4FFD38E
S1130BC060933701709338018093390190933A010F
S1130BD0409008015090090160900A0170900B0147
S1130BE08090270190902801A0902901B0902A01BB
S1130BF0C0903B01D0903C01E0903D01F0903E015B
S1130C00A5019401C501B4018ED569837A838B83D0
S1130C109C83A5019401C501B40185D54B015C01F8
S1130C20A7019601C701B6017ED59B01AC01C501A0
S1130C30B40132D3E5D59B01AC01C301B201905894
S1130C40BED38ED320E030E044E353E46CD528EDEA
S1130C503FE049E450E4B3D3609384017093850189
S1130C60809386019093870140902701509028013A
S1130C706090290170902A018090080190900901E8
S1130C80A0900A01B0900B01C0903B01D0903C01B0
S1130C90E0903D01F0903E01A5019401C501B4012D
S1130CA042D569837A838B839C83A5019401C50112
S1130CB0B40139D54B015C01A7019601C701B60106
S1130CC032D59B01AC01C501B401E6D299D59B0193
S1130CD0AC01C301B20173D343D320E030E044E359
S1130CE053E421D528ED3FE049E450E468D3609310
S1130CF05601709357018093580190935901609164
S1130D0010017091110180911201909113012091B1
S1130D100401309105014091060150910701C090F2
S1130D202301D0902401E0902501F0902601FBD40A
S1130D30A7019601B1D260937301709374018093FB
S1130D407501909376016091880170918901809179
S1130D508A0190918B012091040130910501409109
S1130D60060150910701C0907701D0907801E0907E
S1130D707901F0907A01D7D4A70196018DD26093BE
S1130D804A0170934B0180934C0190934D01609103
S1130D903701709138018091390190913A01209185
S1130DA00401309105014091060150910701C09062
S1130DB04E01D0904F01E0905001F0905101B3D416
S1130DC0A701960169D260931E0170931F0180935D
S1130DD02001909321018FE892ECA5E7BFE3809373
S1130DE08C0190938D01A0938E01B0938F0180911B
S1130DF0840190918501A0918601B0918701BC0185
S1130E00CD01905823E33AEF4EE85CE38CD4609331
S1130E104501709346018093470190934801809166
S1130E20560190915701A0915801B0915901BC010C
S1130E30CD01905823E33AEF4EE85CE374D4609319
S1130E405A0170935B0180935C0190935D01609102
S1130E504501709146018091470190914801C6D4A3
S1130E604B015C01409015015090160160901701F0
S1130E707090180160915A0170915B0180915C013E
S1130E8090915D0199D26B017C01A3019201C5018E
S1130E90B40149D4A701960146D4609352017093DA
S1130EA0530180935401909355016091080170910E
S1130EB0090180910A0190910B0120915201309116
S1130EC053014091540150915501E5D160937B0148
S1130ED070937C0180937D0190937E018AE999E966
S1130EE0A9E1BFE380938C0190938D01A0938E01BF
S1130EF0B0938F0110920401109205011092060123
S1130F00109207016091840170918501809186019E
S1130F109091870131D980908C0190908D01A0909F
S1130F208E01B0908F0140907301509074016090D5
S1130F3075017090760120918C0130918D01409162
S1130F408E0150918F01C0908401D0908501E09072
S1130F508601F090870160E070E080E89FE39BD118
S1130F60A7019601E0D36B017C01A3019201C501A5
S1130F70B401D9D39B01AC01C701B6018DD16093F3
S1130F806F0170937001809371019093720160916D
S1130F905601709157018091580190915901ECD8F4
S1130FA080908C0190908D01A0908E01B0908F0163
S1130FB040904A0150904B0160904C0170904D015B
S1130FC020918C0130918D0140918E0150918F01BF
S1130FD0C0905601D0905701E0905801F09059010B
S1130FE060E070E080E89FE356D1A70196019BD3AF
S1130FF06B017C01A3019201C501B40194D39B014F
S1131000AC01C701B60148D160936B0170936C01C8
S113101080936D0190936E0180911E0190911F0148
S1131020A0912001B0912101809367019093680100
S1131030A0936901B0936A0186E696E6A6E6BFE34B
S113104080938C0190938D01A0938E01B0938F01B6
S113105080908C0190908D01A0908E01B0908F01B2
S11310604090100150901101609012017090130192
S113107020918C0130918D0140918E0150918F010E
S1131080C0906201D0906301E0906401F09065012A
S113109060E070E080E89FE3FED0A701960143D3AF
S11310A06B017C01A3019201C501B4013CD39B01F6
S11310B0AC01C701B601F0D0609310017093110127
S11310C0809312019093130180911001909111016A
S11310D0A0911201B0911301BC01CD019F7720E0D2
S11310E030E040E850E414D318160CF086C0609148
S11310F06201709163018091640190916501C090D7
S11311001001D0901101E0901201F09013012AE92E
S113111039E949E15FE307D3A7019601BDD020E097
S113112030E0A90145D118164CF16091100170917D
S1131130110180911201909113012091620130916B
S11311406301409164015091650132D18823B4F464
S1131150609100017091010180910201909103015D
S113116020E030E040E85FE397D0609300017093A3
S11311700101809302019093030111C010920001B8
S1131180109201011092020110920301A6E8B0E04E
S113119011963C922E92E4E8F0E011830083609172
S11311A0000170910101809102019091030120E0FE
S11311B030E040E050E4FCD081111FC0ECECF1E0E1
S11311C0A6E8B0E01196FC93EE93EEEBF0E0A4E811
S11311D0B0E01196FC93EE9310920001109201017D
S11311E01092020110920301FFEF25EA8EE0F15004
S11311F020408040E1F700C00000809110019091F0
S11312001101A0911201B091130180936201909396
S11312106301A0936401B093650160911001709122
S11312201101809112019091130131D1CB01F5DAB2
S11312308CE2EFDA609184017091850180918601DE
S11312409091870124D1CB01E8DA8CE2E2DA609153
S1131250730170917401809175019091760117D199
S1131260CB01DBDA8CE2D5DA60916F017091700109
S113127080917101909172010AD1CB01CEDA8DE097
S1131280C8DA9FEFA1EEB4E09150A040B040E1F77E
S113129000C000006ACB5058BB27AA270ED0EDC16E
S11312A0B6D130F0BBD120F031F49F3F11F41EF4DD
S11312B086C10EF4E095E7FB7CC1E92F00D280F3F0
S11312C0BA17620773078407950718F071F49EF53F
S11312D018C20EF4E0950B2EBA2FA02D0B01B90104
S11312E090010C01CA01A0011124FF27591B99F098
S11312F0593F50F4503E68F11A16F040A22F232FA4
S1131300342F4427585FF3CF469537952795A795F3
S1131310F0405395C9F77EF41F16BA0B620B730B9A
S1131320840BBAF09150A1F0FF0FBB1F661F771F0B
S1131330881FC2F70EC0BA0F621F731F841F48F4C0
S1131340879577956795B795F7959E3F08F0B3CF46
S11313509395880F08F09927EE0F97958795089530
S1131360DF93DD27B92FBF7740E85FE31616170632
S113137048075B0710F4D92FCFD19F938F937F93A6
S11313806F937CD2ECE8F0E01DD177D12F913F919F
S11313904F915F91D4D1DD2349F09058A2EA2AED10
S11313A03FE049EC5FE3D0785D2787DFDF9165C1DB
S11313B0DCD008F481E0089539D1E3956FC10CD0F5
S11313C05CC12CD140F023D130F021F45F3F19F0FF
S11313D0F0C0511197C1F3C072D198F39923C9F3A6
S11313E05523B1F3951B550BBB27AA276217730727
S11313F0840738F09F5F5F4F220F331F441FAA1FDB
S1131400A9F333D00E2E3AF0E0E830D0915050409A
S1131410E695001CCAF729D0FE2F27D0660F771F48
S1131420881FBB1F261737074807AB07B0E809F02A
S1131430BB0B802DBF01FF2793585F4F2AF09E3FBF
S1131440510568F0B6C05EC15F3FECF3983EDCF333
S1131450869577956795B795F7959F5FC9F7880F38
S1131460911D9695879597F90895E1E0660F771F8A
S1131470881FBB1F621773078407BA0720F0621B1B
S1131480730B840BBA0BEE1F88F7E095089504D014
S11314906894B11137C108951AD188F09F5790F01C
S11314A0B92F9927B751A0F0D1F0660F771F881F85
S11314B0991F1AF0BA95C9F712C0B13081F021D141
S11314C0B1E008951EC1672F782F8827B85F39F0DF
S11314D0B93FCCF3869577956795B395D9F73EF4E4
S11314E090958095709561957F4F8F4F9F4F08958C
S11314F0E89409C097FB3EF49095809570956195AA
S11315007F4F8F4F9F4F9923A9F0F92F96E9BB275F
S11315109395F695879577956795B795F111F8CFDB
S1131520FAF4BB0F11F460FF1BC06F5F7F4F8F4F46
S11315309F4F16C0882311F096E911C0772321F03C
S11315409EE8872F762F05C0662371F096E8862FD4
S113155070E060E02AF09A95660F771F881FDAF72B
S1131560880F9695879597F90895990F0008550F58
S1131570AA0BE0E8FEEF16161706E807F907C0F015
S113158012161306E407F50798F0621B730B840B1D
S1131590950B39F40A2661F0232B242B252B21F4F7
S11315A008950A2609F4A140A6958FEF811D811D97
S11315B0089597F99F6780E870E060E008959FEFD1
S11315C080EC0895DF93CF931F930F93FF92EF92D4
S11315D0DF927B018C01689405C0DA2EEF01AFD055
S11315E0FE01E894A5912591359145915591AEF36D
S11315F0EF0163DEFE019701A801DA9479F7DF9029
S1131600EF90FF900F911F91CF91DF9108950024E7
S11316100A941616170618060906089500240A9453
S113162012161306140605060895C9CF50D0E8F320
S1131630E894E0E0BB279F57F0F02AED3FE049EC47
S113164006C0EE0FBB0F661F771F881F28F0B23A43
S113165062077307840728F0B25A620B730B840B7A
S1131660E3959A9572F7803830F49A95BB0F661F0C
S1131670771F881FD2F7904806C1092E0394000CE7
S113168011F4882352F0BB0F40F4BF2B11F460FF18
S113169004C06F5F7F4F8F4F9F4F0895EF93E0FF1C
S11316A006C0A2EA2AED3FE049EC5FEB06DEE5DF87
S11316B00F90039401FC9058E9EBF0E0F7C057FD5C
S11316C09058440F551F59F05F3F71F04795880FAC
S11316D097FB991F61F09F3F79F087950895121643
S11316E013061406551FF2CF4695F1DF08C01616EF
S11316F017061806991FF1CF8695710561050894A0
S11317000895E894BB2766277727CB0197F90895B6
S11317102CDF08F48FEF08959B01AC0160E070E0CA
S113172080E89FE34CCE0BD0A8CF71DF28F076DFA2
S113173018F0952309F03DCF42CF1124E3CFBFDF4A
S1131740A0F3959FD1F3950F50E0551F629FF001D0
S1131750729FBB27F00DB11D639FAA27F00DB11D29
S1131760AA1F649F6627B00DA11D661F829F2227B2
S1131770B00DA11D621F739FB00DA11D621F839F39
S1131780A00D611D221F749F3327A00D611D231F0F
S1131790849F600D211D822F762F6A2F11249F575D
S11317A050408AF0E1F088234AF0EE0FFF1FBB1F80
S11317B0661F771F881F91505040A9F79E3F51051F
S11317C070F0F7CE9FCF5F3FECF3983EDCF3869545
S11317D077956795B795F795E7959F5FC1F7FE2BCA
S11317E0880F911D9695879597F908959F931EDF0D
S11317F00F9007FCEE5F52CF11F40EF4E0CE41C01F
S113180066DFD0F39923D9F3CEF39F57550B87FFA7
S113181046D00024A0E640EA90018058569597955A
S113182028F4805C660F771F881F20F0261737077F
S1131830480730F4621B730B840B202931294A2B8F
S1131840A69517940794202531254A2758F7660F43
S1131850771F881F20F026173707480730F4620BDC
S1131860730B840B200D311D411DA09581F7B90127
S1131870842F9158880F9695879508959B01AC0104
S113188052CF9F3F31F0915020F48795779567951B
S1131890B795880F911D9695879597F9089591505E
S11318A05040660F771F881FD2F708959F938F9338
S11318B07F936F93FF93EF939B01AC0134DFEF9120
S11318C0FF9180DE2F913F914F915F912CCF97FB39
S11318D0072E16F4009406D077FD08D00BD007FC31
S11318E005D03EF4909581959F4F0895709561952C
S11318F07F4F0895AA1BBB1B51E107C0AA1FBB1F42
S1131900A617B70710F0A61BB70B881F991F5A9587
S1131910A9F780959095BC01CD010895F894FFCF67
S9030000FC
